S01200004C43445F4472697665722E7372656374
S11300000C942A000C943F000C943F000C943F0085
S11300100C943F000C943F000C943F000C943F0060
S11300200C943F000C943F000C943F000C943F0050
S11300300C943F000C943F000C943F000C943F0040
S11300400C943F000C943F000C943F000C943F0030
S11300500C943F0011241FBECFE5D8E0DEBFCDBF16
S113006010E0A0E6B0E0ECE0F4E002C005900D92F0
S1130070AC36B107D9F70E94FD010C9404020C942C
S113008000004423B9F1413009F06BC0813089F09C
S113009028F08230C9F0833011F108952AB381E049
S11300A090E002C0880F991F6A95E2F7822B8ABB01
S11300B0089527B381E090E002C0880F991F6A95E4
S11300C0E2F7822B87BB089524B381E090E002C05D
S11300D0880F991F6A95E2F7822B84BB089521B398
S11300E081E090E002C0880F991F6A95E2F7822BA5
S11300F081BB0895813091F028F08230D9F08330AB
S113010029F108952AB381E090E002C0880F991F75
S11301106A95E2F7809582238ABB089527B381E02C
S113012090E002C0880F991F6A95E2F780958223B8
S113013087BB089524B381E090E002C0880F991F23
S11301406A95E2F78095822384BB089521B381E008
S113015090E002C0880F991F6A95E2F78095822388
S113016081BB08954423B9F1413009F06BC081305B
S113017089F028F08230C9F0833011F108952BB34F
S113018081E090E002C0880F991F6A95E2F7822B04
S11301908BBB089528B381E090E002C0880F991FBB
S11301A06A95E2F7822B88BB089525B381E090E03D
S11301B002C0880F991F6A95E2F7822B85BB0895C8
S11301C022B381E090E002C0880F991F6A95E2F79C
S11301D0822B82BB0895813091F028F08230D9F0CF
S11301E0833029F108952BB381E090E002C0880F99
S11301F0991F6A95E2F7809582238BBB089528B3F3
S113020081E090E002C0880F991F6A95E2F780951B
S1130210822388BB089525B381E090E002C0880F53
S1130220991F6A95E2F78095822385BB089522B3CE
S113023081E090E002C0880F991F6A95E2F78095EB
S1130240822382BB0895CF93C82F40E063E080E00F
S11302500E94B20040E062E080E00E94B2008BB3F2
S11302609C2F907F8F70892B8BBB41E062E080E0F4
S11302700E94B2008FE99FE00197F1F700C00000EF
S113028040E062E080E00E94B20020E1C29FC00131
S113029011249BB39F70892B8BBB41E062E080E00B
S11302A00E94B2008FE99FE00197F1F700C00000BF
S11302B040E062E080E00E94B2008FE19EE401979A
S11302C0F1F700C00000CF91089541E063E080E0C1
S11302D00E94410041E062E080E00E94410041E070
S11302E060E081E00E94410041E061E081E00E9421
S11302F0410041E062E081E00E94410041E064E0AD
S113030081E00E9441002FEF81EE94E02150804073
S11303109040E1F700C0000083E30E94230182E3E0
S11303200E94230188E20E9423018CE00E942301A1
S113033081E00E94230186E00E94230182E00E9462
S113034023018FE19EE40197F1F700C000000895B6
S1130350CF93C82F41E063E080E00E94B20040E008
S113036062E080E00E94B2008BB39C2F907F8F707C
S1130370892B8BBB41E062E080E00E94B2008FE9F0
S11303809FE00197F1F700C0000040E062E080E0E8
S11303900E94B20020E1C29FC00111249BB39F7050
S11303A0892B8BBB41E062E080E00E94B2008FE9C0
S11303B09FE00197F1F700C0000040E062E080E0B8
S11303C00E94B2008FE19EE40197F1F700C00000A3
S11303D0CF9108950F931F93CF938C01C0E003C076
S11303E00E94A801CF5FF801EC0FF11D80818111FB
S11303F0F7CFCF911F910F9108950E94650180E678
S10F040090E00E94EA01FFCFF894FFCFC7
S10F040C48656C6C6F20576F726C6400C4
S9030000FC
