:100000000C942A000C943F000C943F000C943F0089
:100010000C943F000C943F000C943F000C943F0064
:100020000C943F000C943F000C943F000C943F0054
:100030000C943F000C943F000C943F000C943F0044
:100040000C943F000C943F000C943F000C943F0034
:100050000C943F0011241FBECFE5D8E0DEBFCDBF1A
:1000600010E0A0E6B0E0E4EFF4E002C005900D92ED
:10007000A037B107D9F70E9450020C9478020C9473
:100080000000442379F1413009F05FC0813079F0FC
:1000900028F08230A9F08330E1F008952AB381E09E
:1000A00090E001C0880F6A95EAF7822B2CC027B335
:1000B00081E090E001C0880F6A95EAF7822B2EC09C
:1000C00024B381E090E001C0880F6A95EAF7822BA3
:1000D00030C021B381E090E001C0880F6A95EAF753
:1000E000822B32C0813089F028F08230C9F0833011
:1000F00011F108952AB381E090E001C0880F6A955C
:10010000EAF7809582238ABB089527B381E090E0C7
:1001100001C0880F6A95EAF78095822387BB08950E
:1001200024B381E090E001C0880F6A95EAF78095DA
:10013000822384BB089521B381E090E001C0880F41
:100140006A95EAF78095822381BB0895442379F16B
:10015000413009F05FC0813079F028F08230A9F099
:100160008330E1F008952BB381E090E001C0880F67
:100170006A95EAF7822B2CC028B381E090E001C099
:10018000880F6A95EAF7822B2EC025B381E090E0B4
:1001900001C0880F6A95EAF7822B30C022B381E054
:1001A00090E001C0880F6A95EAF7822B32C0813057
:1001B00089F028F08230C9F0833011F108952BB313
:1001C00081E090E001C0880F6A95EAF7809582236C
:1001D0008BBB089528B381E090E001C0880F6A9539
:1001E000EAF78095822388BB089525B381E090E0EB
:1001F00001C0880F6A95EAF78095822385BB089530
:1002000022B381E090E001C0880F6A95EAF78095FB
:10021000822382BB0895FA01813041F028F08230B8
:1002200039F0833039F0089589B305C086B303C02F
:1002300083B301C080B390E002C0959587956A951D
:10024000E2F7817080830895813081F028F0823058
:10025000B9F08330F9F008952BB381E090E001C04C
:10026000880F6A95EAF7822B8BBB089528B381E04B
:1002700090E001C0880F6A95EAF7822B88BB089549
:1002800025B381E090E001C0880F6A95EAF7822BE0
:1002900085BB089522B381E090E001C0880F6A9584
:1002A000EAF7822B82BB0895813081F028F08230FA
:1002B000B9F08330F9F008952BB381E090E001C0EC
:1002C000880F6A95EAF782278BBB089528B381E0EF
:1002D00090E001C0880F6A95EAF7822788BB0895ED
:1002E00025B381E090E001C0880F6A95EAF7822784
:1002F00085BB089522B381E090E001C0880F6A9524
:10030000EAF7822782BB089541E067E083E00E941C
:10031000410041E066E083E00E94410041E065E089
:1003200083E00E94410041E063E083E00E944100DD
:1003300040E065E082E00E94410040E064E082E04D
:100340000E94410040E063E082E00E94410040E002
:1003500062E082E00E94410065E082E00E942401A8
:1003600064E082E00E94240163E082E00E942401B4
:1003700062E082E00E94240141E067E083E00E94A5
:10038000A60041E066E083E00E94A60041E065E04F
:1003900083E00E94A60041E063E083E00C94A600A5
:1003A000BF92CF92DF92EF92FF920F931F93CF9362
:1003B000DF931F92CDB7DEB7198280E6E82E80E08A
:1003C000F82EB12C17E0143079F140E0612F83E072
:1003D0000E94A600670105E0AE014F5F5F4F602FEE
:1003E00082E00E940B018981811113C0F601B08067
:1003F0008981811108C0AE014F5F5F4F602F82E09D
:100400000E940B01F5CF8FE39CE90197F1F700C043
:100410000000015094E0C90ED11C0130E9F641E022
:10042000612F83E00E94A6001150EFEFEE1AFE0A42
:10043000123049F68B2D0F90DF91CF911F910F91C4
:10044000FF90EF90DF90CF90BF900895813051F0F2
:1004500028F0823051F0833059F0089541E067E090
:1004600081E009C041E064E005C041E065E002C010
:1004700041E066E080E00C944100813049F028F0D2
:10048000823041F0833041F0089567E081E006C09A
:1004900064E003C065E001C066E080E00C945401B4
:1004A0000E94840180E00E94260282E00E942602CF
:1004B00040E066E082E00E9441000E94D001882373
:1004C000E1F3C6E080E00E943D022FEF83ED90E370
:1004D000215080409040E1F700C0000082E00E947F
:1004E0003D0266E082E00E945401C15059F7E5CF19
:0404F000F894FFCFAE
:1004F400313233343536373839616263646566675F
:00000001FF
