:100000000C942A000C943C000C943C000C943C0092
:100010000C943C000C943C000C943C000C943C0070
:100020000C943C000C943C000C943C000C943C0060
:100030000C943C000C943C000C943C000C943C0050
:100040000C943C000C943C000C943C000C943C0040
:100050000C943C0011241FBECFE5D8E0DEBFCDBF1D
:1000600020E0A0E6B0E001C01D92A036B207E1F7A3
:100070000E945B010C9490010C94000041E063E04D
:1000800082E00E94790041E064E082E00E94790011
:100090000E9466010895882319F0813061F0089567
:1000A00041E063E082E00E94EA0040E064E082E038
:1000B0000E94EA00089540E063E082E00E94EA00C6
:1000C00041E064E082E00E94EA000895282F30E0D9
:1000D000C901880F991F220F331F220F331F220FD0
:1000E000331F820F931F0E946D0108950E947D01AE
:1000F00008954423B9F1413009F06BC0813089F093
:1001000028F08230C9F0833011F108952AB381E0DC
:1001100090E002C0880F991F6A95E2F7822B8ABB94
:10012000089527B381E090E002C0880F991F6A9577
:10013000E2F7822B87BB089524B381E090E002C0F0
:10014000880F991F6A95E2F7822B84BB089521B32B
:1001500081E090E002C0880F991F6A95E2F7822B38
:1001600081BB0895813091F028F08230D9F083303E
:1001700029F108952AB381E090E002C0880F991F09
:100180006A95E2F7809582238ABB089527B381E0C0
:1001900090E002C0880F991F6A95E2F7809582234C
:1001A00087BB089524B381E090E002C0880F991FB7
:1001B0006A95E2F78095822384BB089521B381E09C
:1001C00090E002C0880F991F6A95E2F7809582231C
:1001D00081BB08954423B9F1413009F06BC08130EF
:1001E00089F028F08230C9F0833011F108952BB3E3
:1001F00081E090E002C0880F991F6A95E2F7822B98
:100200008BBB089528B381E090E002C0880F991F4E
:100210006A95E2F7822B88BB089525B381E090E0D0
:1002200002C0880F991F6A95E2F7822B85BB08955B
:1002300022B381E090E002C0880F991F6A95E2F72F
:10024000822B82BB0895813091F028F08230D9F062
:10025000833029F108952BB381E090E002C0880F2C
:10026000991F6A95E2F7809582238BBB089528B386
:1002700081E090E002C0880F991F6A95E2F78095AF
:10028000822388BB089525B381E090E002C0880FE7
:10029000991F6A95E2F78095822385BB089522B362
:1002A00081E090E002C0880F991F6A95E2F780957F
:1002B000822382BB08950E943E0080E00E944B0092
:1002C0008AE00E9466000E947600FFCF87B38860B4
:1002D00087BB83B7886683BF089520E030E0382F5E
:1002E0003695279536952795ABE7B4E10E948101B5
:1002F0009695879581508CBF089583B7836083BF9F
:100300000895A29FB001B39FC001A39F700D811DEE
:100310001124911DB29F700D811D1124911D08950E
:04032000F894FFCF7F
:00000001FF
