:100000000C942A000C943F000C943F000C943F0089
:100010000C943F000C943F000C943F000C943F0064
:100020000C943F000C943F000C943F000C943F0054
:100030000C943F000C943F000C943F000C943F0044
:100040000C943F000C943F000C943F000C943F0034
:100050000C943F0011241FBECFE5D8E0DEBFCDBF1A
:1000600010E0A0E6B0E0E6E0F4E002C005900D92FA
:10007000A636B107D9F70E94F4010C9401020C9442
:100080000000442379F1413009F05FC0813079F0FC
:1000900028F08230A9F08330E1F008952AB381E09E
:1000A00090E001C0880F6A95EAF7822B2CC027B335
:1000B00081E090E001C0880F6A95EAF7822B2EC09C
:1000C00024B381E090E001C0880F6A95EAF7822BA3
:1000D00030C021B381E090E001C0880F6A95EAF753
:1000E000822B32C0813089F028F08230C9F0833011
:1000F00011F108952AB381E090E001C0880F6A955C
:10010000EAF7809582238ABB089527B381E090E0C7
:1001100001C0880F6A95EAF78095822387BB08950E
:1001200024B381E090E001C0880F6A95EAF78095DA
:10013000822384BB089521B381E090E001C0880F41
:100140006A95EAF78095822381BB0895442379F16B
:10015000413009F05FC0813079F028F08230A9F099
:100160008330E1F008952BB381E090E001C0880F67
:100170006A95EAF7822B2CC028B381E090E001C099
:10018000880F6A95EAF7822B2EC025B381E090E0B4
:1001900001C0880F6A95EAF7822B30C022B381E054
:1001A00090E001C0880F6A95EAF7822B32C0813057
:1001B00089F028F08230C9F0833011F108952BB313
:1001C00081E090E001C0880F6A95EAF7809582236C
:1001D0008BBB089528B381E090E001C0880F6A9539
:1001E000EAF78095822388BB089525B381E090E0EB
:1001F00001C0880F6A95EAF78095822385BB089530
:1002000022B381E090E001C0880F6A95EAF78095FB
:10021000822382BB0895CF93C82F40E063E080E043
:100220000E94A60040E062E080E00E94A60088B341
:100230009C2F907F8F70892B88BB41E062E080E02B
:100240000E94A6008FEC97E00197F1F700C0000034
:1002500040E062E080E00E94A60028B330E1C39F46
:10026000C0011124922F9F70892B88BB41E062E06E
:1002700080E00E94A6008FEC97E00197F1F700C0A4
:10028000000040E062E080E00E94A6008FE097E27C
:100290000197F1F700C00000CF91089541E063E0BD
:1002A00080E00E94410041E062E080E00E94410065
:1002B00041E060E081E00E94410041E061E081E0D6
:1002C0000E94410041E062E081E00E94410041E083
:1002D00064E081E00E9441002FEF80E792E021502E
:1002E00080409040E1F700C0000083E30E940B01D2
:1002F00082E30E940B0188E20E940B018CE00E94C5
:100300000B0186E00E940B018FE097E20197F1F765
:1003100000C000000895CF93C82F41E063E080E063
:100320000E94A60040E062E080E00E94A60088B340
:100330009C2F907F8F70892B88BB41E062E080E02A
:100340000E94A6008FEC97E00197F1F700C0000033
:1003500040E062E080E00E94A60028B330E1C39F45
:10036000C0011124922F9F70892B88BB41E062E06D
:1003700080E00E94A6008FEC97E00197F1F700C0A3
:10038000000040E062E080E00E94A6008FE097E27B
:100390000197F1F700C00000CF9108950F931F93CC
:1003A000CF93DF9300D000D0CDB7DEB700916000CF
:1003B00010916100209162003091630009831A83DB
:1003C0002B833C83FE01E80FF11D8181860F0F9086
:1003D0000F900F900F90DF91CF911F910F910C9480
:1003E0000B0181E00C940B010E944E010E94F1016F
:1003F00060E080E00E94CE0184E690E00E948B01E4
:06040000FFCFF894FFCFCE
:0604060080C094D4480000
:00000001FF
