:100000000C942A000C942D010C9434000C943400B0
:100010000C9434000C9434000C9434000C94340090
:100020000C9434000C9434000C9434000C94340080
:100030000C9434000C9434000C9434000C94340070
:100040000C9434000C9434000C9434000C94340060
:100050000C94340011241FBECFE5D8E0DEBFCDBF25
:100060000E9427010C9452010C9400004423B9F122
:10007000413009F06BC0813089F028F08230C9F03E
:10008000833011F108952AB381E090E002C0880F17
:10009000991F6A95E2F7822B8ABB089527B381E006
:1000A00090E002C0880F991F6A95E2F7822B87BB08
:1000B000089524B381E090E002C0880F991F6A95EB
:1000C000E2F7822B84BB089521B381E090E002C067
:1000D000880F991F6A95E2F7822B81BB08958130C2
:1000E00091F028F08230D9F0833029F108952AB3B5
:1000F00081E090E002C0880F991F6A95E2F7809531
:1001000082238ABB089527B381E090E002C0880F64
:10011000991F6A95E2F78095822387BB089524B3DF
:1001200081E090E002C0880F991F6A95E2F7809500
:10013000822384BB089521B381E090E002C0880F40
:10014000991F6A95E2F78095822381BB08958130DB
:1001500089F028F08230C9F0833011F108952BB373
:1001600081E090E002C0880F991F6A95E2F782272C
:100170008BBB089528B381E090E002C0880F991FDF
:100180006A95E2F7822788BB089525B381E090E065
:1001900002C0880F991F6A95E2F7822785BB0895F0
:1001A00022B381E090E002C0880F991F6A95E2F7C0
:1001B000822782BB08958FB780688FBF08950E9401
:1001C000DB008BB780648BBF85B7816085BF85B747
:1001D000826085BF0895813061F028F0823079F027
:1001E000833099F0089541E067E081E00E94360095
:1001F000089541E064E080E00E943600089541E007
:1002000065E080E00E943600089541E066E080E00D
:100210000E9436000895813059F028F0823069F04C
:10022000833081F0089567E081E00E94A70008957F
:1002300064E080E00E94A700089565E080E00E94ED
:10024000A700089566E080E00E94A70008950E943C
:10025000DF0080E00E94EB00FFCF1F920F920FB6ED
:100260000F9211242F933F934F935F936F937F933C
:100270008F939F93AF93BF93EF93FF9380E00E9480
:100280000B01FF91EF91BF91AF919F918F917F9162
:100290006F915F914F913F912F910F900FBE0F90F3
:0802A0001F901895F894FFCFA0
:00000001FF
