:100000000C942A000C9434000C9434000C943400AA
:100010000C9434000C9434000C9434000C94340090
:100020000C9434000C9434000C9434000C94340080
:100030000C9434000C9434000C9434000C94340070
:100040000C9434000C9434000C9434000C94340060
:100050000C94340011241FBECFE5D8E0DEBFCDBF25
:100060000E945A010C9496010C940000442379F1EB
:10007000413009F05FC0813079F028F08230A9F07A
:100080008330E1F008952AB381E090E001C0880F49
:100090006A95EAF7822B2CC027B381E090E001C07B
:1000A000880F6A95EAF7822B2EC024B381E090E096
:1000B00001C0880F6A95EAF7822B30C021B381E036
:1000C00090E001C0880F6A95EAF7822B32C0813038
:1000D00089F028F08230C9F0833011F108952AB3F5
:1000E00081E090E001C0880F6A95EAF7809582234D
:1000F0008ABB089527B381E090E001C0880F6A951C
:10010000EAF78095822387BB089524B381E090E0CD
:1001100001C0880F6A95EAF78095822384BB089511
:1001200021B381E090E001C0880F6A95EAF78095DD
:10013000822381BB0895442379F1413009F05FC0E7
:10014000813079F028F08230A9F08330E1F0089511
:100150002BB381E090E001C0880F6A95EAF7822B0B
:100160002CC028B381E090E001C0880F6A95EAF7BF
:10017000822B2EC025B381E090E001C0880F6A95E4
:10018000EAF7822B30C022B381E090E001C0880FF3
:100190006A95EAF7822B32C0813089F028F08230EC
:1001A000C9F0833011F108952BB381E090E001C0D4
:1001B000880F6A95EAF7809582238BBB089528B350
:1001C00081E090E001C0880F6A95EAF7809582236C
:1001D00088BB089525B381E090E001C0880F6A953F
:1001E000EAF78095822385BB089522B381E090E0F1
:1001F00001C0880F6A95EAF78095822382BB089533
:10020000813081F028F08230B9F08330F9F0089520
:100210002BB381E090E001C0880F6A95EAF782274E
:100220008BBB089528B381E090E001C0880F6A95E8
:10023000EAF7822788BB089525B381E090E001C0EA
:10024000880F6A95EAF7822785BB089522B381E07B
:1002500090E001C0880F6A95EAF7822782BB089573
:10026000813051F028F0823051F0833059F00895F8
:1002700041E067E081E009C041E064E005C041E0A1
:1002800065E002C041E066E080E00C943600813019
:1002900049F028F0823041F0833041F0089567E062
:1002A00081E006C064E003C065E001C066E080E074
:1002B0000C94000180E00E9430010E9473010E94B2
:1002C00091012FEF83ED90E3215080409040E1F7C2
:1002D00000C0000082E00E948C01823091F780E033
:1002E0000E944701EECF41E064E081E00E943600C9
:1002F00041E065E081E00E94360040E066E081E098
:100300000E94360041E067E081E00E943600689A72
:10031000699A6C9A6E9A08958FB9779BFECF8FB1C8
:10032000089540E064E081E00C949B00F894FFCFD6
:00000001FF
