S019000045787465726E616C5F496E6572727570742E7372656310
S11300000C942A000C9477020C943F000C943F004B
S11300100C943F000C943F000C943F000C943F0060
S11300200C943F000C943F000C943F000C943F0050
S11300300C943F000C943F000C943F000C943F0040
S11300400C943F000C943F000C943F000C943F0030
S11300500C943F0011241FBECFE5D8E0DEBFCDBF16
S113006010E0A0E6B0E0ECE3F5E002C005900D92EC
S1130070A037B107D9F70E9468020C949C020C9433
S11300800000442379F1413009F05FC0813079F0F8
S113009028F08230A9F08330E1F008952AB381E09A
S11300A090E001C0880F6A95EAF7822B2CC027B331
S11300B081E090E001C0880F6A95EAF7822B2EC098
S11300C024B381E090E001C0880F6A95EAF7822B9F
S11300D030C021B381E090E001C0880F6A95EAF74F
S11300E0822B32C0813089F028F08230C9F083300D
S11300F011F108952AB381E090E001C0880F6A9558
S1130100EAF7809582238ABB089527B381E090E0C3
S113011001C0880F6A95EAF78095822387BB08950A
S113012024B381E090E001C0880F6A95EAF78095D6
S1130130822384BB089521B381E090E001C0880F3D
S11301406A95EAF78095822381BB0895442379F167
S1130150413009F05FC0813079F028F08230A9F095
S11301608330E1F008952BB381E090E001C0880F63
S11301706A95EAF7822B2CC028B381E090E001C095
S1130180880F6A95EAF7822B2EC025B381E090E0B0
S113019001C0880F6A95EAF7822B30C022B381E050
S11301A090E001C0880F6A95EAF7822B32C0813053
S11301B089F028F08230C9F0833011F108952BB30F
S11301C081E090E001C0880F6A95EAF78095822368
S11301D08BBB089528B381E090E001C0880F6A9535
S11301E0EAF78095822388BB089525B381E090E0E7
S11301F001C0880F6A95EAF78095822385BB08952C
S113020022B381E090E001C0880F6A95EAF78095F7
S1130210822382BB0895FA01813041F028F08230B4
S113022039F0833039F0089589B305C086B303C02B
S113023083B301C080B390E002C0959587956A9519
S1130240E2F7817080830895813081F028F0823054
S1130250B9F08330F9F008952BB381E090E001C048
S1130260880F6A95EAF7822B8BBB089528B381E047
S113027090E001C0880F6A95EAF7822B88BB089545
S113028025B381E090E001C0880F6A95EAF7822BDC
S113029085BB089522B381E090E001C0880F6A9580
S11302A0EAF7822B82BB0895813081F028F08230F6
S11302B0B9F08330F9F008952BB381E090E001C0E8
S11302C0880F6A95EAF782278BBB089528B381E0EB
S11302D090E001C0880F6A95EAF7822788BB0895E9
S11302E025B381E090E001C0880F6A95EAF7822780
S11302F085BB089522B381E090E001C0880F6A9520
S1130300EAF7822782BB08958FB780688FBF08956C
S11303100E9484018BB780648BBF85B7816085BFE1
S113032085B7826085BF089541E067E083E00E945D
S1130330410041E066E083E00E94410041E065E065
S113034083E00E94410041E063E083E00E944100B9
S113035040E065E082E00E94410040E064E082E029
S11303600E94410040E063E082E00E94410040E0DE
S113037062E082E00E94410065E070E082E090E08B
S11303800E94240164E070E082E090E00E94240175
S113039063E070E082E090E00E94240162E070E09B
S11303A082E090E00E94240141E067E083E00E9443
S11303B0A60041E066E083E00E94A60041E065E01B
S11303C083E00E94A60041E063E083E00C94A60071
S11303D0BF92CF92DF92EF92FF920F931F93CF932E
S11303E0DF931F92CDB7DEB7198280E6E82E80E056
S11303F0F82EB12C17E0143079F140E0612F83E03E
S11304000E94A600670105E0AE014F5F5F4F602FB9
S113041082E00E940B018981811113C0F601B08032
S11304208981811108C0AE014F5F5F4F602F82E068
S11304300E940B01F5CF8FE39CE90197F1F700C00F
S11304400000015094E0C90ED11C0130E9F641E0EE
S1130450612F83E00E94A6001150EFEFEE1AFE0A0E
S1130460123049F68B2D0F90DF91CF911F910F9190
S1130470FF90EF90DF90CF90BF900895813051F0BE
S113048028F0823051F0833059F0089541E067E05C
S113049081E009C041E064E005C041E065E002C0DC
S11304A041E066E080E00C944100813049F028F09E
S11304B0823041F0833041F0089567E081E006C066
S11304C064E003C065E001C066E080E00C94540180
S11304D00E94880180E00E943E020E9494010E94D2
S11304E0E8018823E1F380E00E945502F8CF1F92CF
S11304F00F920FB60F9211242F933F934F935F9354
S11305006F937F938F939F93AF93BF93EF93FF93D7
S113051080E00E945502FF91EF91BF91AF919F91AE
S11305208F917F916F915F914F913F912F910F9098
S10F05300FBE0F901F901895F894FFCF99
S113053C3132333435363738396162636465666712
S9030000FC
