:100000000C942A000C943C000C943C000C943C0092
:100010000C943C000C943C000C943C000C943C0070
:100020000C943C000C943C000C943C000C943C0060
:100030000C943C000C943C000C943C000C943C0050
:100040000C943C000C943C000C943C000C943C0040
:100050000C943C0011241FBECFE5D8E0DEBFCDBF1D
:1000600020E0A0E6B0E001C01D92A036B207E1F7A3
:100070000E9432010C9464010C94000041E065E0A0
:1000800081E00E94680041E066E081E00E94680033
:100090000C943D01882319F0813041F0089541E02E
:1000A00065E081E00E94CD0040E006C040E065E0F0
:1000B00081E00E94CD0041E066E081E00C94CD003B
:1000C0002AE0829FC00111240C9442010C944C013F
:1000D000442379F1413009F05FC0813079F028F094
:1000E0008230A9F08330E1F008952AB381E090E0F6
:1000F00001C0880F6A95EAF7822B2CC027B381E0F4
:1001000090E001C0880F6A95EAF7822B2EC024B3D5
:1001100081E090E001C0880F6A95EAF7822B30C039
:1001200021B381E090E001C0880F6A95EAF7822B45
:1001300032C0813089F028F08230C9F0833011F16B
:1001400008952AB381E090E001C0880F6A95EAF72C
:10015000809582238ABB089527B381E090E001C097
:10016000880F6A95EAF78095822387BB089524B3A8
:1001700081E090E001C0880F6A95EAF780958223BC
:1001800084BB089521B381E090E001C0880F6A9597
:10019000EAF78095822381BB0895442379F14130A9
:1001A00009F05FC0813079F028F08230A9F0833007
:1001B000E1F008952BB381E090E001C0880F6A95CB
:1001C000EAF7822B2CC028B381E090E001C0880FB1
:1001D0006A95EAF7822B2EC025B381E090E001C03A
:1001E000880F6A95EAF7822B30C022B381E090E055
:1001F00001C0880F6A95EAF7822B32C0813089F0FE
:1002000028F08230C9F0833011F108952BB381E0DA
:1002100090E001C0880F6A95EAF7809582238BBB36
:10022000089528B381E090E001C0880F6A95EAF74D
:100230008095822388BB089525B381E090E001C0BA
:10024000880F6A95EAF78095822385BB089522B3CB
:1002500081E090E001C0880F6A95EAF780958223DB
:1002600082BB08950E943E0080E00E944A0083E025
:100270000E9460000E946600FFCFBB9A83B7886629
:1002800083BF089520E0982F822F64E670E00E94DB
:10029000500161506CBF089583B7836083BF089598
:1002A000AA1BBB1B51E107C0AA1FBB1FA617B7079C
:1002B00010F0A61BB70B881F991F5A95A9F78095B8
:0C02C0009095BC01CD010895F894FFCF8B
:00000001FF
