S014000054696D65725F4472697665722E7372656344
S11300000C942A000C943C000C943C000C943C008E
S11300100C943C000C943C000C943C000C9488011F
S11300200C943C000C943C000C943C000C94140183
S11300300C943C000C943C000C943C000C943C004C
S11300400C943C000C943C000C943C000C943C003C
S11300500C943C0011241FBECFE5D8E0DEBFCDBF19
S113006020E0A0E6B0E001C01D92AB36B207E1F794
S11300700E94FD000C9425020C940000442379F1A5
S1130080413009F05FC0813079F028F08230A9F066
S11300908330E1F008952AB381E090E001C0880F35
S11300A06A95EAF7822B2CC027B381E090E001C067
S11300B0880F6A95EAF7822B2EC024B381E090E082
S11300C001C0880F6A95EAF7822B30C021B381E022
S11300D090E001C0880F6A95EAF7822B32C0813024
S11300E089F028F08230C9F0833011F108952AB3E1
S11300F081E090E001C0880F6A95EAF78095822339
S11301008ABB089527B381E090E001C0880F6A9507
S1130110EAF78095822387BB089524B381E090E0B9
S113012001C0880F6A95EAF78095822384BB0895FD
S113013021B381E090E001C0880F6A95EAF78095C9
S1130140822381BB0895813081F028F08230B9F098
S11301508330F9F008952BB381E090E001C0880F5B
S11301606A95EAF782278BBB089528B381E090E073
S113017001C0880F6A95EAF7822788BB089525B3E2
S113018081E090E001C0880F6A95EAF7822785BB79
S1130190089522B381E090E001C0880F6A95EAF7E0
S11301A0822782BB0895813051F028F0823051F0CB
S11301B0833059F0089541E067E081E009C041E0EF
S11301C064E005C041E065E002C041E066E080E033
S11301D00C943E00813049F028F0823041F08330A5
S11301E041F0089567E081E006C064E003C065E083
S11301F001C066E080E00C94A30080E00E94D3007C
S113020081E00E94D30082E00E94D30083E00E9438
S1130210D3000E94E20168EE73E080E090E00E9467
S1130220F0010E94EC01FFCF1F920F920FB60F92C4
S113023011242F933F934F935F936F937F938F93E7
S11302409F93AF93BF93EF93FF938091620090913C
S11302506300A0916400B09165000196A11DB11DD9
S11302608093620090936300A0936400B093650050
S11302704091660050916700609168007091690038
S113028084179507A607B70791F580916A0082BF86
S11302901092620010926300109264001092650044
S11302A080E00E94EA002FEF87E893E1215080402C
S11302B09040E1F700C0000081E00E94EA002FEFC7
S11302C087E893E1215080409040E1F700C00000AE
S11302D082E00E94EA002FEF87E893E121508040FA
S11302E09040E1F700C0000083E00E94EA00FF9123
S11302F0EF91BF91AF919F918F917F916F915F919A
S11303004F913F912F910F900FBE0F901F90189512
S11303101F920F920FB60F9211242F933F934F9376
S11303205F936F937F938F939F93AF93BF93EF9359
S1130330FF93809160009091610001968130910556
S113034029F090936100809360002BC010926100AB
S11303501092600080E00E94EA002FEF87E893E1AA
S1130360215080409040E1F700C0000081E00E94ED
S1130370EA002FEF87E893E1215080409040E1F7B5
S113038000C0000082E00E94EA002FEF87E893E1BA
S1130390215080409040E1F700C0000083E00E94BB
S11303A0EA00FF91EF91BF91AF919F918F917F915F
S11303B06F915F914F913F912F910F900FBE0F90CE
S11303C01F9018958EB588608EBD89B7806189BFEE
S11303D08FB780688FBF08958EB585608EBD0895F0
S11303E09B01AC01213A8FE038074105510590F497
S11303F0A8EEB3E00E940B02DC01CB0126E0B69527
S1130400A795979587952A95D1F7BC0161507109F5
S11304107BBD6ABD08950E941602A59F900DB49FEE
S1130420900DA49F800D911D11240895A29FB001E9
S1130430B39FC001A39F700D811D1124911DB29F14
S1110440700D811D1124911D0895F894FFCFB5
S9030000FC
